{
	"contracts/alloycoin.sol": {
		"AlloyCoin": {
			"abi": [
				{
					"inputs": [],
					"stateMutability": "nonpayable",
					"type": "constructor"
				},
				{
					"inputs": [
						{
							"internalType": "uint256",
							"name": "requested",
							"type": "uint256"
						},
						{
							"internalType": "uint256",
							"name": "available",
							"type": "uint256"
						}
					],
					"name": "insufficientBalance",
					"type": "error"
				},
				{
					"anonymous": false,
					"inputs": [
						{
							"indexed": false,
							"internalType": "address",
							"name": "from",
							"type": "address"
						},
						{
							"indexed": false,
							"internalType": "address",
							"name": "to",
							"type": "address"
						},
						{
							"indexed": false,
							"internalType": "uint256",
							"name": "amount",
							"type": "uint256"
						}
					],
					"name": "Sent",
					"type": "event"
				},
				{
					"inputs": [
						{
							"internalType": "address",
							"name": "",
							"type": "address"
						}
					],
					"name": "balances",
					"outputs": [
						{
							"internalType": "uint256",
							"name": "",
							"type": "uint256"
						}
					],
					"stateMutability": "view",
					"type": "function"
				},
				{
					"inputs": [
						{
							"internalType": "address",
							"name": "receiver",
							"type": "address"
						},
						{
							"internalType": "uint256",
							"name": "amount",
							"type": "uint256"
						}
					],
					"name": "mint",
					"outputs": [],
					"stateMutability": "nonpayable",
					"type": "function"
				},
				{
					"inputs": [],
					"name": "minter",
					"outputs": [
						{
							"internalType": "address",
							"name": "",
							"type": "address"
						}
					],
					"stateMutability": "view",
					"type": "function"
				},
				{
					"inputs": [
						{
							"internalType": "address",
							"name": "receiver",
							"type": "address"
						},
						{
							"internalType": "uint256",
							"name": "amount",
							"type": "uint256"
						}
					],
					"name": "send",
					"outputs": [],
					"stateMutability": "nonpayable",
					"type": "function"
				}
			],
			"devdoc": {
				"kind": "dev",
				"methods": {},
				"version": 1
			},
			"evm": {
				"assembly": "    /* \"contracts/alloycoin.sol\":75:910  contract AlloyCoin {... */\n  mstore(0x40, 0x80)\n    /* \"contracts/alloycoin.sol\":237:289  constructor() {... */\n  callvalue\n  dup1\n  iszero\n  tag_1\n  jumpi\n  0x00\n  dup1\n  revert\ntag_1:\n  pop\n    /* \"contracts/alloycoin.sol\":271:281  msg.sender */\n  caller\n    /* \"contracts/alloycoin.sol\":262:268  minter */\n  0x00\n  dup1\n    /* \"contracts/alloycoin.sol\":262:281  minter = msg.sender */\n  0x0100\n  exp\n  dup2\n  sload\n  dup2\n  0xffffffffffffffffffffffffffffffffffffffff\n  mul\n  not\n  and\n  swap1\n  dup4\n  0xffffffffffffffffffffffffffffffffffffffff\n  and\n  mul\n  or\n  swap1\n  sstore\n  pop\n    /* \"contracts/alloycoin.sol\":75:910  contract AlloyCoin {... */\n  dataSize(sub_0)\n  dup1\n  dataOffset(sub_0)\n  0x00\n  codecopy\n  0x00\n  return\nstop\n\nsub_0: assembly {\n        /* \"contracts/alloycoin.sol\":75:910  contract AlloyCoin {... */\n      mstore(0x40, 0x80)\n      callvalue\n      dup1\n      iszero\n      tag_1\n      jumpi\n      0x00\n      dup1\n      revert\n    tag_1:\n      pop\n      jumpi(tag_2, lt(calldatasize, 0x04))\n      shr(0xe0, calldataload(0x00))\n      dup1\n      0x07546172\n      eq\n      tag_3\n      jumpi\n      dup1\n      0x27e235e3\n      eq\n      tag_4\n      jumpi\n      dup1\n      0x40c10f19\n      eq\n      tag_5\n      jumpi\n      dup1\n      0xd0679d34\n      eq\n      tag_6\n      jumpi\n    tag_2:\n      0x00\n      dup1\n      revert\n        /* \"contracts/alloycoin.sol\":101:122  address public minter */\n    tag_3:\n      tag_7\n      tag_8\n      jump\t// in\n    tag_7:\n      mload(0x40)\n      tag_9\n      swap2\n      swap1\n      tag_10\n      jump\t// in\n    tag_9:\n      mload(0x40)\n      dup1\n      swap2\n      sub\n      swap1\n      return\n        /* \"contracts/alloycoin.sol\":129:170  mapping(address  => uint) public balances */\n    tag_4:\n      tag_11\n      0x04\n      dup1\n      calldatasize\n      sub\n      dup2\n      add\n      swap1\n      tag_12\n      swap2\n      swap1\n      tag_13\n      jump\t// in\n    tag_12:\n      tag_14\n      jump\t// in\n    tag_11:\n      mload(0x40)\n      tag_15\n      swap2\n      swap1\n      tag_16\n      jump\t// in\n    tag_15:\n      mload(0x40)\n      dup1\n      swap2\n      sub\n      swap1\n      return\n        /* \"contracts/alloycoin.sol\":297:468  function mint(address receiver, uint amount) public {... */\n    tag_5:\n      tag_17\n      0x04\n      dup1\n      calldatasize\n      sub\n      dup2\n      add\n      swap1\n      tag_18\n      swap2\n      swap1\n      tag_19\n      jump\t// in\n    tag_18:\n      tag_20\n      jump\t// in\n    tag_17:\n      stop\n        /* \"contracts/alloycoin.sol\":542:905  function send(address receiver, uint amount) public {... */\n    tag_6:\n      tag_21\n      0x04\n      dup1\n      calldatasize\n      sub\n      dup2\n      add\n      swap1\n      tag_22\n      swap2\n      swap1\n      tag_19\n      jump\t// in\n    tag_22:\n      tag_23\n      jump\t// in\n    tag_21:\n      stop\n        /* \"contracts/alloycoin.sol\":101:122  address public minter */\n    tag_8:\n      0x00\n      dup1\n      sload\n      swap1\n      0x0100\n      exp\n      swap1\n      div\n      0xffffffffffffffffffffffffffffffffffffffff\n      and\n      dup2\n      jump\t// out\n        /* \"contracts/alloycoin.sol\":129:170  mapping(address  => uint) public balances */\n    tag_14:\n      mstore(0x20, 0x01)\n      dup1\n      0x00\n      mstore\n      keccak256(0x00, 0x40)\n      0x00\n      swap2\n      pop\n      swap1\n      pop\n      sload\n      dup2\n      jump\t// out\n        /* \"contracts/alloycoin.sol\":297:468  function mint(address receiver, uint amount) public {... */\n    tag_20:\n        /* \"contracts/alloycoin.sol\":382:388  minter */\n      0x00\n      dup1\n      sload\n      swap1\n      0x0100\n      exp\n      swap1\n      div\n      0xffffffffffffffffffffffffffffffffffffffff\n      and\n        /* \"contracts/alloycoin.sol\":368:388  msg.sender == minter */\n      0xffffffffffffffffffffffffffffffffffffffff\n      and\n        /* \"contracts/alloycoin.sol\":368:378  msg.sender */\n      caller\n        /* \"contracts/alloycoin.sol\":368:388  msg.sender == minter */\n      0xffffffffffffffffffffffffffffffffffffffff\n      and\n      eq\n        /* \"contracts/alloycoin.sol\":360:421  require(msg.sender == minter, \"The sender is not the minter\") */\n      tag_25\n      jumpi\n      mload(0x40)\n      0x08c379a000000000000000000000000000000000000000000000000000000000\n      dup2\n      mstore\n      0x04\n      add\n      tag_26\n      swap1\n      tag_27\n      jump\t// in\n    tag_26:\n      mload(0x40)\n      dup1\n      swap2\n      sub\n      swap1\n      revert\n    tag_25:\n        /* \"contracts/alloycoin.sol\":454:460  amount */\n      dup1\n        /* \"contracts/alloycoin.sol\":432:440  balances */\n      0x01\n        /* \"contracts/alloycoin.sol\":432:450  balances[receiver] */\n      0x00\n        /* \"contracts/alloycoin.sol\":441:449  receiver */\n      dup5\n        /* \"contracts/alloycoin.sol\":432:450  balances[receiver] */\n      0xffffffffffffffffffffffffffffffffffffffff\n      and\n      0xffffffffffffffffffffffffffffffffffffffff\n      and\n      dup2\n      mstore\n      0x20\n      add\n      swap1\n      dup2\n      mstore\n      0x20\n      add\n      0x00\n      keccak256\n      0x00\n        /* \"contracts/alloycoin.sol\":432:460  balances[receiver] += amount */\n      dup3\n      dup3\n      sload\n      tag_28\n      swap2\n      swap1\n      tag_29\n      jump\t// in\n    tag_28:\n      swap3\n      pop\n      pop\n      dup2\n      swap1\n      sstore\n      pop\n        /* \"contracts/alloycoin.sol\":297:468  function mint(address receiver, uint amount) public {... */\n      pop\n      pop\n      jump\t// out\n        /* \"contracts/alloycoin.sol\":542:905  function send(address receiver, uint amount) public {... */\n    tag_23:\n        /* \"contracts/alloycoin.sol\":617:625  balances */\n      0x01\n        /* \"contracts/alloycoin.sol\":617:637  balances[msg.sender] */\n      0x00\n        /* \"contracts/alloycoin.sol\":626:636  msg.sender */\n      caller\n        /* \"contracts/alloycoin.sol\":617:637  balances[msg.sender] */\n      0xffffffffffffffffffffffffffffffffffffffff\n      and\n      0xffffffffffffffffffffffffffffffffffffffff\n      and\n      dup2\n      mstore\n      0x20\n      add\n      swap1\n      dup2\n      mstore\n      0x20\n      add\n      0x00\n      keccak256\n      sload\n        /* \"contracts/alloycoin.sol\":608:614  amount */\n      dup2\n        /* \"contracts/alloycoin.sol\":608:637  amount > balances[msg.sender] */\n      gt\n        /* \"contracts/alloycoin.sol\":605:765  if(amount > balances[msg.sender])... */\n      iszero\n      tag_31\n      jumpi\n        /* \"contracts/alloycoin.sol\":701:707  amount */\n      dup1\n        /* \"contracts/alloycoin.sol\":733:741  balances */\n      0x01\n        /* \"contracts/alloycoin.sol\":733:753  balances[msg.sender] */\n      0x00\n        /* \"contracts/alloycoin.sol\":742:752  msg.sender */\n      caller\n        /* \"contracts/alloycoin.sol\":733:753  balances[msg.sender] */\n      0xffffffffffffffffffffffffffffffffffffffff\n      and\n      0xffffffffffffffffffffffffffffffffffffffff\n      and\n      dup2\n      mstore\n      0x20\n      add\n      swap1\n      dup2\n      mstore\n      0x20\n      add\n      0x00\n      keccak256\n      sload\n        /* \"contracts/alloycoin.sol\":655:765  insufficientBalance({... */\n      mload(0x40)\n      0xc7a28c7900000000000000000000000000000000000000000000000000000000\n      dup2\n      mstore\n      0x04\n      add\n      tag_32\n      swap3\n      swap2\n      swap1\n      tag_33\n      jump\t// in\n    tag_32:\n      mload(0x40)\n      dup1\n      swap2\n      sub\n      swap1\n      revert\n        /* \"contracts/alloycoin.sol\":605:765  if(amount > balances[msg.sender])... */\n    tag_31:\n        /* \"contracts/alloycoin.sol\":802:808  amount */\n      dup1\n        /* \"contracts/alloycoin.sol\":778:786  balances */\n      0x01\n        /* \"contracts/alloycoin.sol\":778:798  balances[msg.sender] */\n      0x00\n        /* \"contracts/alloycoin.sol\":787:797  msg.sender */\n      caller\n        /* \"contracts/alloycoin.sol\":778:798  balances[msg.sender] */\n      0xffffffffffffffffffffffffffffffffffffffff\n      and\n      0xffffffffffffffffffffffffffffffffffffffff\n      and\n      dup2\n      mstore\n      0x20\n      add\n      swap1\n      dup2\n      mstore\n      0x20\n      add\n      0x00\n      keccak256\n      0x00\n        /* \"contracts/alloycoin.sol\":778:808  balances[msg.sender] -= amount */\n      dup3\n      dup3\n      sload\n      tag_34\n      swap2\n      swap1\n      tag_35\n      jump\t// in\n    tag_34:\n      swap3\n      pop\n      pop\n      dup2\n      swap1\n      sstore\n      pop\n        /* \"contracts/alloycoin.sol\":841:847  amount */\n      dup1\n        /* \"contracts/alloycoin.sol\":819:827  balances */\n      0x01\n        /* \"contracts/alloycoin.sol\":819:837  balances[receiver] */\n      0x00\n        /* \"contracts/alloycoin.sol\":828:836  receiver */\n      dup5\n        /* \"contracts/alloycoin.sol\":819:837  balances[receiver] */\n      0xffffffffffffffffffffffffffffffffffffffff\n      and\n      0xffffffffffffffffffffffffffffffffffffffff\n      and\n      dup2\n      mstore\n      0x20\n      add\n      swap1\n      dup2\n      mstore\n      0x20\n      add\n      0x00\n      keccak256\n      0x00\n        /* \"contracts/alloycoin.sol\":819:847  balances[receiver] += amount */\n      dup3\n      dup3\n      sload\n      tag_36\n      swap2\n      swap1\n      tag_29\n      jump\t// in\n    tag_36:\n      swap3\n      pop\n      pop\n      dup2\n      swap1\n      sstore\n      pop\n        /* \"contracts/alloycoin.sol\":863:897  Sent(msg.sender, receiver, amount) */\n      0x3990db2d31862302a685e8086b5755072a6e2b5b780af1ee81ece35ee3cd3345\n        /* \"contracts/alloycoin.sol\":868:878  msg.sender */\n      caller\n        /* \"contracts/alloycoin.sol\":880:888  receiver */\n      dup4\n        /* \"contracts/alloycoin.sol\":890:896  amount */\n      dup4\n        /* \"contracts/alloycoin.sol\":863:897  Sent(msg.sender, receiver, amount) */\n      mload(0x40)\n      tag_37\n      swap4\n      swap3\n      swap2\n      swap1\n      tag_38\n      jump\t// in\n    tag_37:\n      mload(0x40)\n      dup1\n      swap2\n      sub\n      swap1\n      log1\n        /* \"contracts/alloycoin.sol\":542:905  function send(address receiver, uint amount) public {... */\n      pop\n      pop\n      jump\t// out\n        /* \"#utility.yul\":7:133   */\n    tag_39:\n        /* \"#utility.yul\":44:51   */\n      0x00\n        /* \"#utility.yul\":84:126   */\n      0xffffffffffffffffffffffffffffffffffffffff\n        /* \"#utility.yul\":77:82   */\n      dup3\n        /* \"#utility.yul\":73:127   */\n      and\n        /* \"#utility.yul\":62:127   */\n      swap1\n      pop\n        /* \"#utility.yul\":7:133   */\n      swap2\n      swap1\n      pop\n      jump\t// out\n        /* \"#utility.yul\":139:235   */\n    tag_40:\n        /* \"#utility.yul\":176:183   */\n      0x00\n        /* \"#utility.yul\":205:229   */\n      tag_58\n        /* \"#utility.yul\":223:228   */\n      dup3\n        /* \"#utility.yul\":205:229   */\n      tag_39\n      jump\t// in\n    tag_58:\n        /* \"#utility.yul\":194:229   */\n      swap1\n      pop\n        /* \"#utility.yul\":139:235   */\n      swap2\n      swap1\n      pop\n      jump\t// out\n        /* \"#utility.yul\":241:359   */\n    tag_41:\n        /* \"#utility.yul\":328:352   */\n      tag_60\n        /* \"#utility.yul\":346:351   */\n      dup2\n        /* \"#utility.yul\":328:352   */\n      tag_40\n      jump\t// in\n    tag_60:\n        /* \"#utility.yul\":323:326   */\n      dup3\n        /* \"#utility.yul\":316:353   */\n      mstore\n        /* \"#utility.yul\":241:359   */\n      pop\n      pop\n      jump\t// out\n        /* \"#utility.yul\":365:587   */\n    tag_10:\n        /* \"#utility.yul\":458:462   */\n      0x00\n        /* \"#utility.yul\":496:498   */\n      0x20\n        /* \"#utility.yul\":485:494   */\n      dup3\n        /* \"#utility.yul\":481:499   */\n      add\n        /* \"#utility.yul\":473:499   */\n      swap1\n      pop\n        /* \"#utility.yul\":509:580   */\n      tag_62\n        /* \"#utility.yul\":577:578   */\n      0x00\n        /* \"#utility.yul\":566:575   */\n      dup4\n        /* \"#utility.yul\":562:579   */\n      add\n        /* \"#utility.yul\":553:559   */\n      dup5\n        /* \"#utility.yul\":509:580   */\n      tag_41\n      jump\t// in\n    tag_62:\n        /* \"#utility.yul\":365:587   */\n      swap3\n      swap2\n      pop\n      pop\n      jump\t// out\n        /* \"#utility.yul\":674:791   */\n    tag_43:\n        /* \"#utility.yul\":783:784   */\n      0x00\n        /* \"#utility.yul\":780:781   */\n      dup1\n        /* \"#utility.yul\":773:785   */\n      revert\n        /* \"#utility.yul\":920:1042   */\n    tag_45:\n        /* \"#utility.yul\":993:1017   */\n      tag_67\n        /* \"#utility.yul\":1011:1016   */\n      dup2\n        /* \"#utility.yul\":993:1017   */\n      tag_40\n      jump\t// in\n    tag_67:\n        /* \"#utility.yul\":986:991   */\n      dup2\n        /* \"#utility.yul\":983:1018   */\n      eq\n        /* \"#utility.yul\":973:1036   */\n      tag_68\n      jumpi\n        /* \"#utility.yul\":1032:1033   */\n      0x00\n        /* \"#utility.yul\":1029:1030   */\n      dup1\n        /* \"#utility.yul\":1022:1034   */\n      revert\n        /* \"#utility.yul\":973:1036   */\n    tag_68:\n        /* \"#utility.yul\":920:1042   */\n      pop\n      jump\t// out\n        /* \"#utility.yul\":1048:1187   */\n    tag_46:\n        /* \"#utility.yul\":1094:1099   */\n      0x00\n        /* \"#utility.yul\":1132:1138   */\n      dup2\n        /* \"#utility.yul\":1119:1139   */\n      calldataload\n        /* \"#utility.yul\":1110:1139   */\n      swap1\n      pop\n        /* \"#utility.yul\":1148:1181   */\n      tag_70\n        /* \"#utility.yul\":1175:1180   */\n      dup2\n        /* \"#utility.yul\":1148:1181   */\n      tag_45\n      jump\t// in\n    tag_70:\n        /* \"#utility.yul\":1048:1187   */\n      swap3\n      swap2\n      pop\n      pop\n      jump\t// out\n        /* \"#utility.yul\":1193:1522   */\n    tag_13:\n        /* \"#utility.yul\":1252:1258   */\n      0x00\n        /* \"#utility.yul\":1301:1303   */\n      0x20\n        /* \"#utility.yul\":1289:1298   */\n      dup3\n        /* \"#utility.yul\":1280:1287   */\n      dup5\n        /* \"#utility.yul\":1276:1299   */\n      sub\n        /* \"#utility.yul\":1272:1304   */\n      slt\n        /* \"#utility.yul\":1269:1388   */\n      iszero\n      tag_72\n      jumpi\n        /* \"#utility.yul\":1307:1386   */\n      tag_73\n      tag_43\n      jump\t// in\n    tag_73:\n        /* \"#utility.yul\":1269:1388   */\n    tag_72:\n        /* \"#utility.yul\":1427:1428   */\n      0x00\n        /* \"#utility.yul\":1452:1505   */\n      tag_74\n        /* \"#utility.yul\":1497:1504   */\n      dup5\n        /* \"#utility.yul\":1488:1494   */\n      dup3\n        /* \"#utility.yul\":1477:1486   */\n      dup6\n        /* \"#utility.yul\":1473:1495   */\n      add\n        /* \"#utility.yul\":1452:1505   */\n      tag_46\n      jump\t// in\n    tag_74:\n        /* \"#utility.yul\":1442:1505   */\n      swap2\n      pop\n        /* \"#utility.yul\":1398:1515   */\n      pop\n        /* \"#utility.yul\":1193:1522   */\n      swap3\n      swap2\n      pop\n      pop\n      jump\t// out\n        /* \"#utility.yul\":1528:1605   */\n    tag_47:\n        /* \"#utility.yul\":1565:1572   */\n      0x00\n        /* \"#utility.yul\":1594:1599   */\n      dup2\n        /* \"#utility.yul\":1583:1599   */\n      swap1\n      pop\n        /* \"#utility.yul\":1528:1605   */\n      swap2\n      swap1\n      pop\n      jump\t// out\n        /* \"#utility.yul\":1611:1729   */\n    tag_48:\n        /* \"#utility.yul\":1698:1722   */\n      tag_77\n        /* \"#utility.yul\":1716:1721   */\n      dup2\n        /* \"#utility.yul\":1698:1722   */\n      tag_47\n      jump\t// in\n    tag_77:\n        /* \"#utility.yul\":1693:1696   */\n      dup3\n        /* \"#utility.yul\":1686:1723   */\n      mstore\n        /* \"#utility.yul\":1611:1729   */\n      pop\n      pop\n      jump\t// out\n        /* \"#utility.yul\":1735:1957   */\n    tag_16:\n        /* \"#utility.yul\":1828:1832   */\n      0x00\n        /* \"#utility.yul\":1866:1868   */\n      0x20\n        /* \"#utility.yul\":1855:1864   */\n      dup3\n        /* \"#utility.yul\":1851:1869   */\n      add\n        /* \"#utility.yul\":1843:1869   */\n      swap1\n      pop\n        /* \"#utility.yul\":1879:1950   */\n      tag_79\n        /* \"#utility.yul\":1947:1948   */\n      0x00\n        /* \"#utility.yul\":1936:1945   */\n      dup4\n        /* \"#utility.yul\":1932:1949   */\n      add\n        /* \"#utility.yul\":1923:1929   */\n      dup5\n        /* \"#utility.yul\":1879:1950   */\n      tag_48\n      jump\t// in\n    tag_79:\n        /* \"#utility.yul\":1735:1957   */\n      swap3\n      swap2\n      pop\n      pop\n      jump\t// out\n        /* \"#utility.yul\":1963:2085   */\n    tag_49:\n        /* \"#utility.yul\":2036:2060   */\n      tag_81\n        /* \"#utility.yul\":2054:2059   */\n      dup2\n        /* \"#utility.yul\":2036:2060   */\n      tag_47\n      jump\t// in\n    tag_81:\n        /* \"#utility.yul\":2029:2034   */\n      dup2\n        /* \"#utility.yul\":2026:2061   */\n      eq\n        /* \"#utility.yul\":2016:2079   */\n      tag_82\n      jumpi\n        /* \"#utility.yul\":2075:2076   */\n      0x00\n        /* \"#utility.yul\":2072:2073   */\n      dup1\n        /* \"#utility.yul\":2065:2077   */\n      revert\n        /* \"#utility.yul\":2016:2079   */\n    tag_82:\n        /* \"#utility.yul\":1963:2085   */\n      pop\n      jump\t// out\n        /* \"#utility.yul\":2091:2230   */\n    tag_50:\n        /* \"#utility.yul\":2137:2142   */\n      0x00\n        /* \"#utility.yul\":2175:2181   */\n      dup2\n        /* \"#utility.yul\":2162:2182   */\n      calldataload\n        /* \"#utility.yul\":2153:2182   */\n      swap1\n      pop\n        /* \"#utility.yul\":2191:2224   */\n      tag_84\n        /* \"#utility.yul\":2218:2223   */\n      dup2\n        /* \"#utility.yul\":2191:2224   */\n      tag_49\n      jump\t// in\n    tag_84:\n        /* \"#utility.yul\":2091:2230   */\n      swap3\n      swap2\n      pop\n      pop\n      jump\t// out\n        /* \"#utility.yul\":2236:2710   */\n    tag_19:\n        /* \"#utility.yul\":2304:2310   */\n      0x00\n        /* \"#utility.yul\":2312:2318   */\n      dup1\n        /* \"#utility.yul\":2361:2363   */\n      0x40\n        /* \"#utility.yul\":2349:2358   */\n      dup4\n        /* \"#utility.yul\":2340:2347   */\n      dup6\n        /* \"#utility.yul\":2336:2359   */\n      sub\n        /* \"#utility.yul\":2332:2364   */\n      slt\n        /* \"#utility.yul\":2329:2448   */\n      iszero\n      tag_86\n      jumpi\n        /* \"#utility.yul\":2367:2446   */\n      tag_87\n      tag_43\n      jump\t// in\n    tag_87:\n        /* \"#utility.yul\":2329:2448   */\n    tag_86:\n        /* \"#utility.yul\":2487:2488   */\n      0x00\n        /* \"#utility.yul\":2512:2565   */\n      tag_88\n        /* \"#utility.yul\":2557:2564   */\n      dup6\n        /* \"#utility.yul\":2548:2554   */\n      dup3\n        /* \"#utility.yul\":2537:2546   */\n      dup7\n        /* \"#utility.yul\":2533:2555   */\n      add\n        /* \"#utility.yul\":2512:2565   */\n      tag_46\n      jump\t// in\n    tag_88:\n        /* \"#utility.yul\":2502:2565   */\n      swap3\n      pop\n        /* \"#utility.yul\":2458:2575   */\n      pop\n        /* \"#utility.yul\":2614:2616   */\n      0x20\n        /* \"#utility.yul\":2640:2693   */\n      tag_89\n        /* \"#utility.yul\":2685:2692   */\n      dup6\n        /* \"#utility.yul\":2676:2682   */\n      dup3\n        /* \"#utility.yul\":2665:2674   */\n      dup7\n        /* \"#utility.yul\":2661:2683   */\n      add\n        /* \"#utility.yul\":2640:2693   */\n      tag_50\n      jump\t// in\n    tag_89:\n        /* \"#utility.yul\":2630:2693   */\n      swap2\n      pop\n        /* \"#utility.yul\":2585:2703   */\n      pop\n        /* \"#utility.yul\":2236:2710   */\n      swap3\n      pop\n      swap3\n      swap1\n      pop\n      jump\t// out\n        /* \"#utility.yul\":2716:2885   */\n    tag_51:\n        /* \"#utility.yul\":2800:2811   */\n      0x00\n        /* \"#utility.yul\":2834:2840   */\n      dup3\n        /* \"#utility.yul\":2829:2832   */\n      dup3\n        /* \"#utility.yul\":2822:2841   */\n      mstore\n        /* \"#utility.yul\":2874:2878   */\n      0x20\n        /* \"#utility.yul\":2869:2872   */\n      dup3\n        /* \"#utility.yul\":2865:2879   */\n      add\n        /* \"#utility.yul\":2850:2879   */\n      swap1\n      pop\n        /* \"#utility.yul\":2716:2885   */\n      swap3\n      swap2\n      pop\n      pop\n      jump\t// out\n        /* \"#utility.yul\":2891:3069   */\n    tag_52:\n        /* \"#utility.yul\":3031:3061   */\n      0x5468652073656e646572206973206e6f7420746865206d696e74657200000000\n        /* \"#utility.yul\":3027:3028   */\n      0x00\n        /* \"#utility.yul\":3019:3025   */\n      dup3\n        /* \"#utility.yul\":3015:3029   */\n      add\n        /* \"#utility.yul\":3008:3062   */\n      mstore\n        /* \"#utility.yul\":2891:3069   */\n      pop\n      jump\t// out\n        /* \"#utility.yul\":3075:3441   */\n    tag_53:\n        /* \"#utility.yul\":3217:3220   */\n      0x00\n        /* \"#utility.yul\":3238:3305   */\n      tag_93\n        /* \"#utility.yul\":3302:3304   */\n      0x1c\n        /* \"#utility.yul\":3297:3300   */\n      dup4\n        /* \"#utility.yul\":3238:3305   */\n      tag_51\n      jump\t// in\n    tag_93:\n        /* \"#utility.yul\":3231:3305   */\n      swap2\n      pop\n        /* \"#utility.yul\":3314:3407   */\n      tag_94\n        /* \"#utility.yul\":3403:3406   */\n      dup3\n        /* \"#utility.yul\":3314:3407   */\n      tag_52\n      jump\t// in\n    tag_94:\n        /* \"#utility.yul\":3432:3434   */\n      0x20\n        /* \"#utility.yul\":3427:3430   */\n      dup3\n        /* \"#utility.yul\":3423:3435   */\n      add\n        /* \"#utility.yul\":3416:3435   */\n      swap1\n      pop\n        /* \"#utility.yul\":3075:3441   */\n      swap2\n      swap1\n      pop\n      jump\t// out\n        /* \"#utility.yul\":3447:3866   */\n    tag_27:\n        /* \"#utility.yul\":3613:3617   */\n      0x00\n        /* \"#utility.yul\":3651:3653   */\n      0x20\n        /* \"#utility.yul\":3640:3649   */\n      dup3\n        /* \"#utility.yul\":3636:3654   */\n      add\n        /* \"#utility.yul\":3628:3654   */\n      swap1\n      pop\n        /* \"#utility.yul\":3700:3709   */\n      dup2\n        /* \"#utility.yul\":3694:3698   */\n      dup2\n        /* \"#utility.yul\":3690:3710   */\n      sub\n        /* \"#utility.yul\":3686:3687   */\n      0x00\n        /* \"#utility.yul\":3675:3684   */\n      dup4\n        /* \"#utility.yul\":3671:3688   */\n      add\n        /* \"#utility.yul\":3664:3711   */\n      mstore\n        /* \"#utility.yul\":3728:3859   */\n      tag_96\n        /* \"#utility.yul\":3854:3858   */\n      dup2\n        /* \"#utility.yul\":3728:3859   */\n      tag_53\n      jump\t// in\n    tag_96:\n        /* \"#utility.yul\":3720:3859   */\n      swap1\n      pop\n        /* \"#utility.yul\":3447:3866   */\n      swap2\n      swap1\n      pop\n      jump\t// out\n        /* \"#utility.yul\":3872:4052   */\n    tag_54:\n        /* \"#utility.yul\":3920:3997   */\n      0x4e487b7100000000000000000000000000000000000000000000000000000000\n        /* \"#utility.yul\":3917:3918   */\n      0x00\n        /* \"#utility.yul\":3910:3998   */\n      mstore\n        /* \"#utility.yul\":4017:4021   */\n      0x11\n        /* \"#utility.yul\":4014:4015   */\n      0x04\n        /* \"#utility.yul\":4007:4022   */\n      mstore\n        /* \"#utility.yul\":4041:4045   */\n      0x24\n        /* \"#utility.yul\":4038:4039   */\n      0x00\n        /* \"#utility.yul\":4031:4046   */\n      revert\n        /* \"#utility.yul\":4058:4249   */\n    tag_29:\n        /* \"#utility.yul\":4098:4101   */\n      0x00\n        /* \"#utility.yul\":4117:4137   */\n      tag_99\n        /* \"#utility.yul\":4135:4136   */\n      dup3\n        /* \"#utility.yul\":4117:4137   */\n      tag_47\n      jump\t// in\n    tag_99:\n        /* \"#utility.yul\":4112:4137   */\n      swap2\n      pop\n        /* \"#utility.yul\":4151:4171   */\n      tag_100\n        /* \"#utility.yul\":4169:4170   */\n      dup4\n        /* \"#utility.yul\":4151:4171   */\n      tag_47\n      jump\t// in\n    tag_100:\n        /* \"#utility.yul\":4146:4171   */\n      swap3\n      pop\n        /* \"#utility.yul\":4194:4195   */\n      dup3\n        /* \"#utility.yul\":4191:4192   */\n      dup3\n        /* \"#utility.yul\":4187:4196   */\n      add\n        /* \"#utility.yul\":4180:4196   */\n      swap1\n      pop\n        /* \"#utility.yul\":4215:4218   */\n      dup1\n        /* \"#utility.yul\":4212:4213   */\n      dup3\n        /* \"#utility.yul\":4209:4219   */\n      gt\n        /* \"#utility.yul\":4206:4242   */\n      iszero\n      tag_101\n      jumpi\n        /* \"#utility.yul\":4222:4240   */\n      tag_102\n      tag_54\n      jump\t// in\n    tag_102:\n        /* \"#utility.yul\":4206:4242   */\n    tag_101:\n        /* \"#utility.yul\":4058:4249   */\n      swap3\n      swap2\n      pop\n      pop\n      jump\t// out\n        /* \"#utility.yul\":4255:4587   */\n    tag_33:\n        /* \"#utility.yul\":4376:4380   */\n      0x00\n        /* \"#utility.yul\":4414:4416   */\n      0x40\n        /* \"#utility.yul\":4403:4412   */\n      dup3\n        /* \"#utility.yul\":4399:4417   */\n      add\n        /* \"#utility.yul\":4391:4417   */\n      swap1\n      pop\n        /* \"#utility.yul\":4427:4498   */\n      tag_104\n        /* \"#utility.yul\":4495:4496   */\n      0x00\n        /* \"#utility.yul\":4484:4493   */\n      dup4\n        /* \"#utility.yul\":4480:4497   */\n      add\n        /* \"#utility.yul\":4471:4477   */\n      dup6\n        /* \"#utility.yul\":4427:4498   */\n      tag_48\n      jump\t// in\n    tag_104:\n        /* \"#utility.yul\":4508:4580   */\n      tag_105\n        /* \"#utility.yul\":4576:4578   */\n      0x20\n        /* \"#utility.yul\":4565:4574   */\n      dup4\n        /* \"#utility.yul\":4561:4579   */\n      add\n        /* \"#utility.yul\":4552:4558   */\n      dup5\n        /* \"#utility.yul\":4508:4580   */\n      tag_48\n      jump\t// in\n    tag_105:\n        /* \"#utility.yul\":4255:4587   */\n      swap4\n      swap3\n      pop\n      pop\n      pop\n      jump\t// out\n        /* \"#utility.yul\":4593:4787   */\n    tag_35:\n        /* \"#utility.yul\":4633:4637   */\n      0x00\n        /* \"#utility.yul\":4653:4673   */\n      tag_107\n        /* \"#utility.yul\":4671:4672   */\n      dup3\n        /* \"#utility.yul\":4653:4673   */\n      tag_47\n      jump\t// in\n    tag_107:\n        /* \"#utility.yul\":4648:4673   */\n      swap2\n      pop\n        /* \"#utility.yul\":4687:4707   */\n      tag_108\n        /* \"#utility.yul\":4705:4706   */\n      dup4\n        /* \"#utility.yul\":4687:4707   */\n      tag_47\n      jump\t// in\n    tag_108:\n        /* \"#utility.yul\":4682:4707   */\n      swap3\n      pop\n        /* \"#utility.yul\":4731:4732   */\n      dup3\n        /* \"#utility.yul\":4728:4729   */\n      dup3\n        /* \"#utility.yul\":4724:4733   */\n      sub\n        /* \"#utility.yul\":4716:4733   */\n      swap1\n      pop\n        /* \"#utility.yul\":4755:4756   */\n      dup2\n        /* \"#utility.yul\":4749:4753   */\n      dup2\n        /* \"#utility.yul\":4746:4757   */\n      gt\n        /* \"#utility.yul\":4743:4780   */\n      iszero\n      tag_109\n      jumpi\n        /* \"#utility.yul\":4760:4778   */\n      tag_110\n      tag_54\n      jump\t// in\n    tag_110:\n        /* \"#utility.yul\":4743:4780   */\n    tag_109:\n        /* \"#utility.yul\":4593:4787   */\n      swap3\n      swap2\n      pop\n      pop\n      jump\t// out\n        /* \"#utility.yul\":4793:5235   */\n    tag_38:\n        /* \"#utility.yul\":4942:4946   */\n      0x00\n        /* \"#utility.yul\":4980:4982   */\n      0x60\n        /* \"#utility.yul\":4969:4978   */\n      dup3\n        /* \"#utility.yul\":4965:4983   */\n      add\n        /* \"#utility.yul\":4957:4983   */\n      swap1\n      pop\n        /* \"#utility.yul\":4993:5064   */\n      tag_112\n        /* \"#utility.yul\":5061:5062   */\n      0x00\n        /* \"#utility.yul\":5050:5059   */\n      dup4\n        /* \"#utility.yul\":5046:5063   */\n      add\n        /* \"#utility.yul\":5037:5043   */\n      dup7\n        /* \"#utility.yul\":4993:5064   */\n      tag_41\n      jump\t// in\n    tag_112:\n        /* \"#utility.yul\":5074:5146   */\n      tag_113\n        /* \"#utility.yul\":5142:5144   */\n      0x20\n        /* \"#utility.yul\":5131:5140   */\n      dup4\n        /* \"#utility.yul\":5127:5145   */\n      add\n        /* \"#utility.yul\":5118:5124   */\n      dup6\n        /* \"#utility.yul\":5074:5146   */\n      tag_41\n      jump\t// in\n    tag_113:\n        /* \"#utility.yul\":5156:5228   */\n      tag_114\n        /* \"#utility.yul\":5224:5226   */\n      0x40\n        /* \"#utility.yul\":5213:5222   */\n      dup4\n        /* \"#utility.yul\":5209:5227   */\n      add\n        /* \"#utility.yul\":5200:5206   */\n      dup5\n        /* \"#utility.yul\":5156:5228   */\n      tag_48\n      jump\t// in\n    tag_114:\n        /* \"#utility.yul\":4793:5235   */\n      swap5\n      swap4\n      pop\n      pop\n      pop\n      pop\n      jump\t// out\n\n    auxdata: 0xa264697066735822122049d06886bc412a15e30a2aff98061c383ea18543dd64b54fa3f1d7a2ea2c44f264736f6c63430008180033\n}\n",
				"bytecode": {
					"linkReferences": {},
					"object": "608060405234801561000f575f80fd5b50335f806101000a81548173ffffffffffffffffffffffffffffffffffffffff021916908373ffffffffffffffffffffffffffffffffffffffff16021790555061067d8061005c5f395ff3fe608060405234801561000f575f80fd5b506004361061004a575f3560e01c8063075461721461004e57806327e235e31461006c57806340c10f191461009c578063d0679d34146100b8575b5f80fd5b6100566100d4565b60405161006391906103d5565b60405180910390f35b6100866004803603810190610081919061041c565b6100f7565b604051610093919061045f565b60405180910390f35b6100b660048036038101906100b191906104a2565b61010c565b005b6100d260048036038101906100cd91906104a2565b6101f0565b005b5f8054906101000a900473ffffffffffffffffffffffffffffffffffffffff1681565b6001602052805f5260405f205f915090505481565b5f8054906101000a900473ffffffffffffffffffffffffffffffffffffffff1673ffffffffffffffffffffffffffffffffffffffff163373ffffffffffffffffffffffffffffffffffffffff1614610199576040517f08c379a00000000000000000000000000000000000000000000000000000000081526004016101909061053a565b60405180910390fd5b8060015f8473ffffffffffffffffffffffffffffffffffffffff1673ffffffffffffffffffffffffffffffffffffffff1681526020019081526020015f205f8282546101e59190610585565b925050819055505050565b60015f3373ffffffffffffffffffffffffffffffffffffffff1673ffffffffffffffffffffffffffffffffffffffff1681526020019081526020015f20548111156102b1578060015f3373ffffffffffffffffffffffffffffffffffffffff1673ffffffffffffffffffffffffffffffffffffffff1681526020019081526020015f20546040517fc7a28c790000000000000000000000000000000000000000000000000000000081526004016102a89291906105b8565b60405180910390fd5b8060015f3373ffffffffffffffffffffffffffffffffffffffff1673ffffffffffffffffffffffffffffffffffffffff1681526020019081526020015f205f8282546102fd91906105df565b925050819055508060015f8473ffffffffffffffffffffffffffffffffffffffff1673ffffffffffffffffffffffffffffffffffffffff1681526020019081526020015f205f8282546103509190610585565b925050819055507f3990db2d31862302a685e8086b5755072a6e2b5b780af1ee81ece35ee3cd334533838360405161038a93929190610612565b60405180910390a15050565b5f73ffffffffffffffffffffffffffffffffffffffff82169050919050565b5f6103bf82610396565b9050919050565b6103cf816103b5565b82525050565b5f6020820190506103e85f8301846103c6565b92915050565b5f80fd5b6103fb816103b5565b8114610405575f80fd5b50565b5f81359050610416816103f2565b92915050565b5f60208284031215610431576104306103ee565b5b5f61043e84828501610408565b91505092915050565b5f819050919050565b61045981610447565b82525050565b5f6020820190506104725f830184610450565b92915050565b61048181610447565b811461048b575f80fd5b50565b5f8135905061049c81610478565b92915050565b5f80604083850312156104b8576104b76103ee565b5b5f6104c585828601610408565b92505060206104d68582860161048e565b9150509250929050565b5f82825260208201905092915050565b7f5468652073656e646572206973206e6f7420746865206d696e746572000000005f82015250565b5f610524601c836104e0565b915061052f826104f0565b602082019050919050565b5f6020820190508181035f83015261055181610518565b9050919050565b7f4e487b71000000000000000000000000000000000000000000000000000000005f52601160045260245ffd5b5f61058f82610447565b915061059a83610447565b92508282019050808211156105b2576105b1610558565b5b92915050565b5f6040820190506105cb5f830185610450565b6105d86020830184610450565b9392505050565b5f6105e982610447565b91506105f483610447565b925082820390508181111561060c5761060b610558565b5b92915050565b5f6060820190506106255f8301866103c6565b61063260208301856103c6565b61063f6040830184610450565b94935050505056fea264697066735822122049d06886bc412a15e30a2aff98061c383ea18543dd64b54fa3f1d7a2ea2c44f264736f6c63430008180033",
					"opcodes": "PUSH1 0x80 PUSH1 0x40 MSTORE CALLVALUE DUP1 ISZERO PUSH2 0xF JUMPI PUSH0 DUP1 REVERT JUMPDEST POP CALLER PUSH0 DUP1 PUSH2 0x100 EXP DUP2 SLOAD DUP2 PUSH20 0xFFFFFFFFFFFFFFFFFFFFFFFFFFFFFFFFFFFFFFFF MUL NOT AND SWAP1 DUP4 PUSH20 0xFFFFFFFFFFFFFFFFFFFFFFFFFFFFFFFFFFFFFFFF AND MUL OR SWAP1 SSTORE POP PUSH2 0x67D DUP1 PUSH2 0x5C PUSH0 CODECOPY PUSH0 RETURN INVALID PUSH1 0x80 PUSH1 0x40 MSTORE CALLVALUE DUP1 ISZERO PUSH2 0xF JUMPI PUSH0 DUP1 REVERT JUMPDEST POP PUSH1 0x4 CALLDATASIZE LT PUSH2 0x4A JUMPI PUSH0 CALLDATALOAD PUSH1 0xE0 SHR DUP1 PUSH4 0x7546172 EQ PUSH2 0x4E JUMPI DUP1 PUSH4 0x27E235E3 EQ PUSH2 0x6C JUMPI DUP1 PUSH4 0x40C10F19 EQ PUSH2 0x9C JUMPI DUP1 PUSH4 0xD0679D34 EQ PUSH2 0xB8 JUMPI JUMPDEST PUSH0 DUP1 REVERT JUMPDEST PUSH2 0x56 PUSH2 0xD4 JUMP JUMPDEST PUSH1 0x40 MLOAD PUSH2 0x63 SWAP2 SWAP1 PUSH2 0x3D5 JUMP JUMPDEST PUSH1 0x40 MLOAD DUP1 SWAP2 SUB SWAP1 RETURN JUMPDEST PUSH2 0x86 PUSH1 0x4 DUP1 CALLDATASIZE SUB DUP2 ADD SWAP1 PUSH2 0x81 SWAP2 SWAP1 PUSH2 0x41C JUMP JUMPDEST PUSH2 0xF7 JUMP JUMPDEST PUSH1 0x40 MLOAD PUSH2 0x93 SWAP2 SWAP1 PUSH2 0x45F JUMP JUMPDEST PUSH1 0x40 MLOAD DUP1 SWAP2 SUB SWAP1 RETURN JUMPDEST PUSH2 0xB6 PUSH1 0x4 DUP1 CALLDATASIZE SUB DUP2 ADD SWAP1 PUSH2 0xB1 SWAP2 SWAP1 PUSH2 0x4A2 JUMP JUMPDEST PUSH2 0x10C JUMP JUMPDEST STOP JUMPDEST PUSH2 0xD2 PUSH1 0x4 DUP1 CALLDATASIZE SUB DUP2 ADD SWAP1 PUSH2 0xCD SWAP2 SWAP1 PUSH2 0x4A2 JUMP JUMPDEST PUSH2 0x1F0 JUMP JUMPDEST STOP JUMPDEST PUSH0 DUP1 SLOAD SWAP1 PUSH2 0x100 EXP SWAP1 DIV PUSH20 0xFFFFFFFFFFFFFFFFFFFFFFFFFFFFFFFFFFFFFFFF AND DUP2 JUMP JUMPDEST PUSH1 0x1 PUSH1 0x20 MSTORE DUP1 PUSH0 MSTORE PUSH1 0x40 PUSH0 KECCAK256 PUSH0 SWAP2 POP SWAP1 POP SLOAD DUP2 JUMP JUMPDEST PUSH0 DUP1 SLOAD SWAP1 PUSH2 0x100 EXP SWAP1 DIV PUSH20 0xFFFFFFFFFFFFFFFFFFFFFFFFFFFFFFFFFFFFFFFF AND PUSH20 0xFFFFFFFFFFFFFFFFFFFFFFFFFFFFFFFFFFFFFFFF AND CALLER PUSH20 0xFFFFFFFFFFFFFFFFFFFFFFFFFFFFFFFFFFFFFFFF AND EQ PUSH2 0x199 JUMPI PUSH1 0x40 MLOAD PUSH32 0x8C379A000000000000000000000000000000000000000000000000000000000 DUP2 MSTORE PUSH1 0x4 ADD PUSH2 0x190 SWAP1 PUSH2 0x53A JUMP JUMPDEST PUSH1 0x40 MLOAD DUP1 SWAP2 SUB SWAP1 REVERT JUMPDEST DUP1 PUSH1 0x1 PUSH0 DUP5 PUSH20 0xFFFFFFFFFFFFFFFFFFFFFFFFFFFFFFFFFFFFFFFF AND PUSH20 0xFFFFFFFFFFFFFFFFFFFFFFFFFFFFFFFFFFFFFFFF AND DUP2 MSTORE PUSH1 0x20 ADD SWAP1 DUP2 MSTORE PUSH1 0x20 ADD PUSH0 KECCAK256 PUSH0 DUP3 DUP3 SLOAD PUSH2 0x1E5 SWAP2 SWAP1 PUSH2 0x585 JUMP JUMPDEST SWAP3 POP POP DUP2 SWAP1 SSTORE POP POP POP JUMP JUMPDEST PUSH1 0x1 PUSH0 CALLER PUSH20 0xFFFFFFFFFFFFFFFFFFFFFFFFFFFFFFFFFFFFFFFF AND PUSH20 0xFFFFFFFFFFFFFFFFFFFFFFFFFFFFFFFFFFFFFFFF AND DUP2 MSTORE PUSH1 0x20 ADD SWAP1 DUP2 MSTORE PUSH1 0x20 ADD PUSH0 KECCAK256 SLOAD DUP2 GT ISZERO PUSH2 0x2B1 JUMPI DUP1 PUSH1 0x1 PUSH0 CALLER PUSH20 0xFFFFFFFFFFFFFFFFFFFFFFFFFFFFFFFFFFFFFFFF AND PUSH20 0xFFFFFFFFFFFFFFFFFFFFFFFFFFFFFFFFFFFFFFFF AND DUP2 MSTORE PUSH1 0x20 ADD SWAP1 DUP2 MSTORE PUSH1 0x20 ADD PUSH0 KECCAK256 SLOAD PUSH1 0x40 MLOAD PUSH32 0xC7A28C7900000000000000000000000000000000000000000000000000000000 DUP2 MSTORE PUSH1 0x4 ADD PUSH2 0x2A8 SWAP3 SWAP2 SWAP1 PUSH2 0x5B8 JUMP JUMPDEST PUSH1 0x40 MLOAD DUP1 SWAP2 SUB SWAP1 REVERT JUMPDEST DUP1 PUSH1 0x1 PUSH0 CALLER PUSH20 0xFFFFFFFFFFFFFFFFFFFFFFFFFFFFFFFFFFFFFFFF AND PUSH20 0xFFFFFFFFFFFFFFFFFFFFFFFFFFFFFFFFFFFFFFFF AND DUP2 MSTORE PUSH1 0x20 ADD SWAP1 DUP2 MSTORE PUSH1 0x20 ADD PUSH0 KECCAK256 PUSH0 DUP3 DUP3 SLOAD PUSH2 0x2FD SWAP2 SWAP1 PUSH2 0x5DF JUMP JUMPDEST SWAP3 POP POP DUP2 SWAP1 SSTORE POP DUP1 PUSH1 0x1 PUSH0 DUP5 PUSH20 0xFFFFFFFFFFFFFFFFFFFFFFFFFFFFFFFFFFFFFFFF AND PUSH20 0xFFFFFFFFFFFFFFFFFFFFFFFFFFFFFFFFFFFFFFFF AND DUP2 MSTORE PUSH1 0x20 ADD SWAP1 DUP2 MSTORE PUSH1 0x20 ADD PUSH0 KECCAK256 PUSH0 DUP3 DUP3 SLOAD PUSH2 0x350 SWAP2 SWAP1 PUSH2 0x585 JUMP JUMPDEST SWAP3 POP POP DUP2 SWAP1 SSTORE POP PUSH32 0x3990DB2D31862302A685E8086B5755072A6E2B5B780AF1EE81ECE35EE3CD3345 CALLER DUP4 DUP4 PUSH1 0x40 MLOAD PUSH2 0x38A SWAP4 SWAP3 SWAP2 SWAP1 PUSH2 0x612 JUMP JUMPDEST PUSH1 0x40 MLOAD DUP1 SWAP2 SUB SWAP1 LOG1 POP POP JUMP JUMPDEST PUSH0 PUSH20 0xFFFFFFFFFFFFFFFFFFFFFFFFFFFFFFFFFFFFFFFF DUP3 AND SWAP1 POP SWAP2 SWAP1 POP JUMP JUMPDEST PUSH0 PUSH2 0x3BF DUP3 PUSH2 0x396 JUMP JUMPDEST SWAP1 POP SWAP2 SWAP1 POP JUMP JUMPDEST PUSH2 0x3CF DUP2 PUSH2 0x3B5 JUMP JUMPDEST DUP3 MSTORE POP POP JUMP JUMPDEST PUSH0 PUSH1 0x20 DUP3 ADD SWAP1 POP PUSH2 0x3E8 PUSH0 DUP4 ADD DUP5 PUSH2 0x3C6 JUMP JUMPDEST SWAP3 SWAP2 POP POP JUMP JUMPDEST PUSH0 DUP1 REVERT JUMPDEST PUSH2 0x3FB DUP2 PUSH2 0x3B5 JUMP JUMPDEST DUP2 EQ PUSH2 0x405 JUMPI PUSH0 DUP1 REVERT JUMPDEST POP JUMP JUMPDEST PUSH0 DUP2 CALLDATALOAD SWAP1 POP PUSH2 0x416 DUP2 PUSH2 0x3F2 JUMP JUMPDEST SWAP3 SWAP2 POP POP JUMP JUMPDEST PUSH0 PUSH1 0x20 DUP3 DUP5 SUB SLT ISZERO PUSH2 0x431 JUMPI PUSH2 0x430 PUSH2 0x3EE JUMP JUMPDEST JUMPDEST PUSH0 PUSH2 0x43E DUP5 DUP3 DUP6 ADD PUSH2 0x408 JUMP JUMPDEST SWAP2 POP POP SWAP3 SWAP2 POP POP JUMP JUMPDEST PUSH0 DUP2 SWAP1 POP SWAP2 SWAP1 POP JUMP JUMPDEST PUSH2 0x459 DUP2 PUSH2 0x447 JUMP JUMPDEST DUP3 MSTORE POP POP JUMP JUMPDEST PUSH0 PUSH1 0x20 DUP3 ADD SWAP1 POP PUSH2 0x472 PUSH0 DUP4 ADD DUP5 PUSH2 0x450 JUMP JUMPDEST SWAP3 SWAP2 POP POP JUMP JUMPDEST PUSH2 0x481 DUP2 PUSH2 0x447 JUMP JUMPDEST DUP2 EQ PUSH2 0x48B JUMPI PUSH0 DUP1 REVERT JUMPDEST POP JUMP JUMPDEST PUSH0 DUP2 CALLDATALOAD SWAP1 POP PUSH2 0x49C DUP2 PUSH2 0x478 JUMP JUMPDEST SWAP3 SWAP2 POP POP JUMP JUMPDEST PUSH0 DUP1 PUSH1 0x40 DUP4 DUP6 SUB SLT ISZERO PUSH2 0x4B8 JUMPI PUSH2 0x4B7 PUSH2 0x3EE JUMP JUMPDEST JUMPDEST PUSH0 PUSH2 0x4C5 DUP6 DUP3 DUP7 ADD PUSH2 0x408 JUMP JUMPDEST SWAP3 POP POP PUSH1 0x20 PUSH2 0x4D6 DUP6 DUP3 DUP7 ADD PUSH2 0x48E JUMP JUMPDEST SWAP2 POP POP SWAP3 POP SWAP3 SWAP1 POP JUMP JUMPDEST PUSH0 DUP3 DUP3 MSTORE PUSH1 0x20 DUP3 ADD SWAP1 POP SWAP3 SWAP2 POP POP JUMP JUMPDEST PUSH32 0x5468652073656E646572206973206E6F7420746865206D696E74657200000000 PUSH0 DUP3 ADD MSTORE POP JUMP JUMPDEST PUSH0 PUSH2 0x524 PUSH1 0x1C DUP4 PUSH2 0x4E0 JUMP JUMPDEST SWAP2 POP PUSH2 0x52F DUP3 PUSH2 0x4F0 JUMP JUMPDEST PUSH1 0x20 DUP3 ADD SWAP1 POP SWAP2 SWAP1 POP JUMP JUMPDEST PUSH0 PUSH1 0x20 DUP3 ADD SWAP1 POP DUP2 DUP2 SUB PUSH0 DUP4 ADD MSTORE PUSH2 0x551 DUP2 PUSH2 0x518 JUMP JUMPDEST SWAP1 POP SWAP2 SWAP1 POP JUMP JUMPDEST PUSH32 0x4E487B7100000000000000000000000000000000000000000000000000000000 PUSH0 MSTORE PUSH1 0x11 PUSH1 0x4 MSTORE PUSH1 0x24 PUSH0 REVERT JUMPDEST PUSH0 PUSH2 0x58F DUP3 PUSH2 0x447 JUMP JUMPDEST SWAP2 POP PUSH2 0x59A DUP4 PUSH2 0x447 JUMP JUMPDEST SWAP3 POP DUP3 DUP3 ADD SWAP1 POP DUP1 DUP3 GT ISZERO PUSH2 0x5B2 JUMPI PUSH2 0x5B1 PUSH2 0x558 JUMP JUMPDEST JUMPDEST SWAP3 SWAP2 POP POP JUMP JUMPDEST PUSH0 PUSH1 0x40 DUP3 ADD SWAP1 POP PUSH2 0x5CB PUSH0 DUP4 ADD DUP6 PUSH2 0x450 JUMP JUMPDEST PUSH2 0x5D8 PUSH1 0x20 DUP4 ADD DUP5 PUSH2 0x450 JUMP JUMPDEST SWAP4 SWAP3 POP POP POP JUMP JUMPDEST PUSH0 PUSH2 0x5E9 DUP3 PUSH2 0x447 JUMP JUMPDEST SWAP2 POP PUSH2 0x5F4 DUP4 PUSH2 0x447 JUMP JUMPDEST SWAP3 POP DUP3 DUP3 SUB SWAP1 POP DUP2 DUP2 GT ISZERO PUSH2 0x60C JUMPI PUSH2 0x60B PUSH2 0x558 JUMP JUMPDEST JUMPDEST SWAP3 SWAP2 POP POP JUMP JUMPDEST PUSH0 PUSH1 0x60 DUP3 ADD SWAP1 POP PUSH2 0x625 PUSH0 DUP4 ADD DUP7 PUSH2 0x3C6 JUMP JUMPDEST PUSH2 0x632 PUSH1 0x20 DUP4 ADD DUP6 PUSH2 0x3C6 JUMP JUMPDEST PUSH2 0x63F PUSH1 0x40 DUP4 ADD DUP5 PUSH2 0x450 JUMP JUMPDEST SWAP5 SWAP4 POP POP POP POP JUMP INVALID LOG2 PUSH5 0x6970667358 0x22 SLT KECCAK256 BLOBHASH 0xD0 PUSH9 0x86BC412A15E30A2AFF SWAP9 MOD SHR CODESIZE RETURNDATACOPY LOG1 DUP6 NUMBER 0xDD PUSH5 0xB54FA3F1D7 LOG2 0xEA 0x2C PREVRANDAO CALLCODE PUSH5 0x736F6C6343 STOP ADDMOD XOR STOP CALLER "
				},
				"gasEstimates": {
					"creation": {
						"codeDepositCost": "332200",
						"executionCost": "24631",
						"totalCost": "356831"
					},
					"external": {
						"balances(address)": "2802",
						"mint(address,uint256)": "infinite",
						"minter()": "2483",
						"send(address,uint256)": "infinite"
					}
				},
				"methodIdentifiers": {
					"balances(address)": "27e235e3",
					"mint(address,uint256)": "40c10f19",
					"minter()": "07546172",
					"send(address,uint256)": "d0679d34"
				}
			},
			"storageLayout": {
				"storage": [
					{
						"astId": 3,
						"contract": "contracts/alloycoin.sol:AlloyCoin",
						"label": "minter",
						"offset": 0,
						"slot": "0",
						"type": "t_address"
					},
					{
						"astId": 7,
						"contract": "contracts/alloycoin.sol:AlloyCoin",
						"label": "balances",
						"offset": 0,
						"slot": "1",
						"type": "t_mapping(t_address,t_uint256)"
					}
				],
				"types": {
					"t_address": {
						"encoding": "inplace",
						"label": "address",
						"numberOfBytes": "20"
					},
					"t_mapping(t_address,t_uint256)": {
						"encoding": "mapping",
						"key": "t_address",
						"label": "mapping(address => uint256)",
						"numberOfBytes": "32",
						"value": "t_uint256"
					},
					"t_uint256": {
						"encoding": "inplace",
						"label": "uint256",
						"numberOfBytes": "32"
					}
				}
			},
			"userdoc": {
				"kind": "user",
				"methods": {},
				"version": 1
			}
		}
	}
}